{
  "_format": "hh-sol-artifact-1",
  "contractName": "DocVerify",
  "sourceName": "contracts/DocVerify.sol",
  "abi": [
    {
      "inputs": [],
      "stateMutability": "nonpayable",
      "type": "constructor"
    },
    {
      "anonymous": false,
      "inputs": [
        {
          "indexed": true,
          "internalType": "bytes32",
          "name": "batchId",
          "type": "bytes32"
        },
        {
          "indexed": false,
          "internalType": "bytes32",
          "name": "merkleRoot",
          "type": "bytes32"
        },
        {
          "indexed": false,
          "internalType": "uint256",
          "name": "documentCount",
          "type": "uint256"
        },
        {
          "indexed": true,
          "internalType": "address",
          "name": "issuer",
          "type": "address"
        },
        {
          "indexed": false,
          "internalType": "uint256",
          "name": "timestamp",
          "type": "uint256"
        }
      ],
      "name": "BatchRegistered",
      "type": "event"
    },
    {
      "anonymous": false,
      "inputs": [
        {
          "indexed": true,
          "internalType": "bytes32",
          "name": "documentHash",
          "type": "bytes32"
        },
        {
          "indexed": false,
          "internalType": "string",
          "name": "documentId",
          "type": "string"
        },
        {
          "indexed": true,
          "internalType": "address",
          "name": "issuer",
          "type": "address"
        },
        {
          "indexed": false,
          "internalType": "uint256",
          "name": "timestamp",
          "type": "uint256"
        }
      ],
      "name": "DocumentRegistered",
      "type": "event"
    },
    {
      "anonymous": false,
      "inputs": [
        {
          "indexed": true,
          "internalType": "bytes32",
          "name": "documentHash",
          "type": "bytes32"
        },
        {
          "indexed": true,
          "internalType": "address",
          "name": "revoker",
          "type": "address"
        },
        {
          "indexed": false,
          "internalType": "uint256",
          "name": "timestamp",
          "type": "uint256"
        }
      ],
      "name": "DocumentRevoked",
      "type": "event"
    },
    {
      "anonymous": false,
      "inputs": [
        {
          "indexed": true,
          "internalType": "bytes32",
          "name": "documentHash",
          "type": "bytes32"
        },
        {
          "indexed": true,
          "internalType": "address",
          "name": "verifier",
          "type": "address"
        },
        {
          "indexed": false,
          "internalType": "bool",
          "name": "isValid",
          "type": "bool"
        },
        {
          "indexed": false,
          "internalType": "uint256",
          "name": "timestamp",
          "type": "uint256"
        }
      ],
      "name": "DocumentVerified",
      "type": "event"
    },
    {
      "anonymous": false,
      "inputs": [
        {
          "indexed": true,
          "internalType": "address",
          "name": "issuer",
          "type": "address"
        },
        {
          "indexed": true,
          "internalType": "address",
          "name": "authorizedBy",
          "type": "address"
        }
      ],
      "name": "IssuerAuthorized",
      "type": "event"
    },
    {
      "anonymous": false,
      "inputs": [
        {
          "indexed": true,
          "internalType": "address",
          "name": "issuer",
          "type": "address"
        },
        {
          "indexed": true,
          "internalType": "address",
          "name": "revokedBy",
          "type": "address"
        }
      ],
      "name": "IssuerRevoked",
      "type": "event"
    },
    {
      "anonymous": false,
      "inputs": [
        {
          "indexed": true,
          "internalType": "address",
          "name": "previousOwner",
          "type": "address"
        },
        {
          "indexed": true,
          "internalType": "address",
          "name": "newOwner",
          "type": "address"
        }
      ],
      "name": "OwnershipTransferred",
      "type": "event"
    },
    {
      "inputs": [
        {
          "internalType": "address",
          "name": "_issuer",
          "type": "address"
        }
      ],
      "name": "authorizeIssuer",
      "outputs": [],
      "stateMutability": "nonpayable",
      "type": "function"
    },
    {
      "inputs": [
        {
          "internalType": "address",
          "name": "",
          "type": "address"
        }
      ],
      "name": "authorizedIssuers",
      "outputs": [
        {
          "internalType": "bool",
          "name": "",
          "type": "bool"
        }
      ],
      "stateMutability": "view",
      "type": "function"
    },
    {
      "inputs": [
        {
          "internalType": "bytes32",
          "name": "",
          "type": "bytes32"
        }
      ],
      "name": "batches",
      "outputs": [
        {
          "internalType": "bytes32",
          "name": "merkleRoot",
          "type": "bytes32"
        },
        {
          "internalType": "uint256",
          "name": "documentCount",
          "type": "uint256"
        },
        {
          "internalType": "address",
          "name": "issuer",
          "type": "address"
        },
        {
          "internalType": "uint256",
          "name": "timestamp",
          "type": "uint256"
        }
      ],
      "stateMutability": "view",
      "type": "function"
    },
    {
      "inputs": [
        {
          "internalType": "string",
          "name": "",
          "type": "string"
        }
      ],
      "name": "documentIdToHash",
      "outputs": [
        {
          "internalType": "bytes32",
          "name": "",
          "type": "bytes32"
        }
      ],
      "stateMutability": "view",
      "type": "function"
    },
    {
      "inputs": [
        {
          "internalType": "bytes32",
          "name": "",
          "type": "bytes32"
        }
      ],
      "name": "documents",
      "outputs": [
        {
          "internalType": "bytes32",
          "name": "documentHash",
          "type": "bytes32"
        },
        {
          "internalType": "address",
          "name": "issuer",
          "type": "address"
        },
        {
          "internalType": "uint256",
          "name": "timestamp",
          "type": "uint256"
        },
        {
          "internalType": "bool",
          "name": "isRevoked",
          "type": "bool"
        },
        {
          "internalType": "string",
          "name": "documentId",
          "type": "string"
        }
      ],
      "stateMutability": "view",
      "type": "function"
    },
    {
      "inputs": [
        {
          "internalType": "bytes32",
          "name": "_batchId",
          "type": "bytes32"
        }
      ],
      "name": "getBatch",
      "outputs": [
        {
          "internalType": "bytes32",
          "name": "merkleRoot",
          "type": "bytes32"
        },
        {
          "internalType": "uint256",
          "name": "documentCount",
          "type": "uint256"
        },
        {
          "internalType": "address",
          "name": "issuer",
          "type": "address"
        },
        {
          "internalType": "uint256",
          "name": "timestamp",
          "type": "uint256"
        }
      ],
      "stateMutability": "view",
      "type": "function"
    },
    {
      "inputs": [
        {
          "internalType": "bytes32",
          "name": "_documentHash",
          "type": "bytes32"
        }
      ],
      "name": "getDocument",
      "outputs": [
        {
          "internalType": "address",
          "name": "issuer",
          "type": "address"
        },
        {
          "internalType": "uint256",
          "name": "timestamp",
          "type": "uint256"
        },
        {
          "internalType": "bool",
          "name": "isRevoked",
          "type": "bool"
        },
        {
          "internalType": "string",
          "name": "documentId",
          "type": "string"
        }
      ],
      "stateMutability": "view",
      "type": "function"
    },
    {
      "inputs": [],
      "name": "getStats",
      "outputs": [
        {
          "internalType": "uint256",
          "name": "_totalDocuments",
          "type": "uint256"
        },
        {
          "internalType": "uint256",
          "name": "_totalBatches",
          "type": "uint256"
        },
        {
          "internalType": "uint256",
          "name": "_totalVerifications",
          "type": "uint256"
        }
      ],
      "stateMutability": "view",
      "type": "function"
    },
    {
      "inputs": [
        {
          "internalType": "address",
          "name": "_address",
          "type": "address"
        }
      ],
      "name": "isAuthorized",
      "outputs": [
        {
          "internalType": "bool",
          "name": "",
          "type": "bool"
        }
      ],
      "stateMutability": "view",
      "type": "function"
    },
    {
      "inputs": [],
      "name": "owner",
      "outputs": [
        {
          "internalType": "address",
          "name": "",
          "type": "address"
        }
      ],
      "stateMutability": "view",
      "type": "function"
    },
    {
      "inputs": [
        {
          "internalType": "bytes32",
          "name": "_merkleRoot",
          "type": "bytes32"
        },
        {
          "internalType": "uint256",
          "name": "_documentCount",
          "type": "uint256"
        },
        {
          "internalType": "bytes32",
          "name": "_batchId",
          "type": "bytes32"
        }
      ],
      "name": "registerBatch",
      "outputs": [],
      "stateMutability": "nonpayable",
      "type": "function"
    },
    {
      "inputs": [
        {
          "internalType": "bytes32",
          "name": "_documentHash",
          "type": "bytes32"
        },
        {
          "internalType": "string",
          "name": "_documentId",
          "type": "string"
        }
      ],
      "name": "registerDocument",
      "outputs": [],
      "stateMutability": "nonpayable",
      "type": "function"
    },
    {
      "inputs": [
        {
          "internalType": "bytes32",
          "name": "_documentHash",
          "type": "bytes32"
        }
      ],
      "name": "revokeDocument",
      "outputs": [],
      "stateMutability": "nonpayable",
      "type": "function"
    },
    {
      "inputs": [
        {
          "internalType": "address",
          "name": "_issuer",
          "type": "address"
        }
      ],
      "name": "revokeIssuer",
      "outputs": [],
      "stateMutability": "nonpayable",
      "type": "function"
    },
    {
      "inputs": [],
      "name": "totalBatches",
      "outputs": [
        {
          "internalType": "uint256",
          "name": "",
          "type": "uint256"
        }
      ],
      "stateMutability": "view",
      "type": "function"
    },
    {
      "inputs": [],
      "name": "totalDocuments",
      "outputs": [
        {
          "internalType": "uint256",
          "name": "",
          "type": "uint256"
        }
      ],
      "stateMutability": "view",
      "type": "function"
    },
    {
      "inputs": [],
      "name": "totalVerifications",
      "outputs": [
        {
          "internalType": "uint256",
          "name": "",
          "type": "uint256"
        }
      ],
      "stateMutability": "view",
      "type": "function"
    },
    {
      "inputs": [
        {
          "internalType": "address",
          "name": "_newOwner",
          "type": "address"
        }
      ],
      "name": "transferOwnership",
      "outputs": [],
      "stateMutability": "nonpayable",
      "type": "function"
    },
    {
      "inputs": [
        {
          "internalType": "bytes32",
          "name": "_batchId",
          "type": "bytes32"
        },
        {
          "internalType": "bytes32",
          "name": "_documentHash",
          "type": "bytes32"
        },
        {
          "internalType": "bytes32[]",
          "name": "_merkleProof",
          "type": "bytes32[]"
        }
      ],
      "name": "verifyBatchDocument",
      "outputs": [
        {
          "internalType": "bool",
          "name": "isValid",
          "type": "bool"
        }
      ],
      "stateMutability": "view",
      "type": "function"
    },
    {
      "inputs": [
        {
          "internalType": "string",
          "name": "_documentId",
          "type": "string"
        }
      ],
      "name": "verifyByDocumentId",
      "outputs": [
        {
          "internalType": "bool",
          "name": "isValid",
          "type": "bool"
        },
        {
          "internalType": "bytes32",
          "name": "documentHash",
          "type": "bytes32"
        },
        {
          "internalType": "address",
          "name": "issuer",
          "type": "address"
        },
        {
          "internalType": "uint256",
          "name": "timestamp",
          "type": "uint256"
        },
        {
          "internalType": "bool",
          "name": "isRevoked",
          "type": "bool"
        }
      ],
      "stateMutability": "view",
      "type": "function"
    },
    {
      "inputs": [
        {
          "internalType": "bytes32",
          "name": "_documentHash",
          "type": "bytes32"
        }
      ],
      "name": "verifyDocument",
      "outputs": [
        {
          "internalType": "bool",
          "name": "isValid",
          "type": "bool"
        },
        {
          "internalType": "address",
          "name": "issuer",
          "type": "address"
        },
        {
          "internalType": "uint256",
          "name": "timestamp",
          "type": "uint256"
        },
        {
          "internalType": "bool",
          "name": "isRevoked",
          "type": "bool"
        }
      ],
      "stateMutability": "nonpayable",
      "type": "function"
    }
  ],
  "bytecode": "0x608060405234801561001057600080fd5b50600080546001600160a01b03191633908117825580825260046020526040808320805460ff1916600117905551909182917ff4cd6b9ab16a30e83c28fe7158ea1b91584403cb530c35fe073d780143b6732c9190a3611a43806100756000396000f3fe608060405234801561001057600080fd5b50600436106101365760003560e01c8063ac90c140116100b8578063ed42136f1161007c578063ed42136f1461035b578063f2fde38b146103bb578063f731fa0f146103ce578063fa17185a146103f1578063fe35089f14610404578063fe9fbb801461044357600080fd5b8063ac90c14014610279578063b10d6b4114610282578063b304fb31146102a5578063c59d4847146102c8578063c81e25ab146102ec57600080fd5b80635ae13e96116100ff5780635ae13e96146101ba57806369ff6abb146101e55780638da5cb5b146101ee578063952be80d14610219578063a57171db1461022c57600080fd5b80626296791461013b5780632b2805db1461015057806336da40a61461017d578063436693d514610190578063553181ec146101a3575b600080fd5b61014e610149366004611452565b610456565b005b61016361015e366004611482565b61059a565b6040516101749594939291906114e1565b60405180910390f35b61014e61018b366004611521565b610662565b61014e61019e366004611452565b610876565b6101ac60055481565b604051908152602001610174565b6101ac6101c8366004611563565b805160208183018101805160028252928201919093012091525481565b6101ac60065481565b600054610201906001600160a01b031681565b6040516001600160a01b039091168152602001610174565b61014e610227366004611482565b6109ad565b61023f61023a36600461165d565b610b96565b60408051951515865260208601949094526001600160a01b039092169284019290925260608301919091521515608082015260a001610174565b6101ac60075481565b610295610290366004611482565b610cdf565b604051610174949392919061169f565b6102b86102b33660046116d8565b610df2565b6040519015158152602001610174565b60055460065460075460408051938452602084019290925290820152606001610174565b61032c6102fa366004611482565b600360208190526000918252604090912080546001820154600283015492909301549092916001600160a01b03169084565b604051610174949392919093845260208401929092526001600160a01b03166040830152606082015260800190565b61032c610369366004611482565b60009081526003602081815260409283902083516080810185528154808252600183015493820184905260028301546001600160a01b0316958201869052919093015460609093018390529390929190565b61014e6103c9366004611452565b610f2d565b6102b86103dc366004611452565b60046020526000908152604090205460ff1681565b61014e6103ff36600461175b565b611013565b610417610412366004611482565b6112a2565b6040805194151585526001600160a01b0390931660208501529183015215156060820152608001610174565b6102b8610451366004611452565b611417565b6000546001600160a01b031633146104895760405162461bcd60e51b8152600401610480906117a7565b60405180910390fd5b6000546001600160a01b03908116908216036104e75760405162461bcd60e51b815260206004820152601e60248201527f446f635665726966793a2063616e6e6f74207265766f6b65206f776e657200006044820152606401610480565b6001600160a01b03811660009081526004602052604090205460ff1661054f5760405162461bcd60e51b815260206004820152601960248201527f446f635665726966793a206e6f7420617574686f72697a6564000000000000006044820152606401610480565b6001600160a01b038116600081815260046020526040808220805460ff19169055513392917f19b45c31d6494a95202224ef9780f2e51d5699484120c7ab4c2e15f04e02183291a350565b6001602081905260009182526040909120805491810154600282015460038301546004840180546001600160a01b0390941694929360ff90921692916105df906117de565b80601f016020809104026020016040519081016040528092919081815260200182805461060b906117de565b80156106585780601f1061062d57610100808354040283529160200191610658565b820191906000526020600020905b81548152906001019060200180831161063b57829003601f168201915b5050505050905085565b6000546001600160a01b031633148061068a57503360009081526004602052604090205460ff165b6106a65760405162461bcd60e51b815260040161048090611818565b826106f35760405162461bcd60e51b815260206004820152601e60248201527f446f635665726966793a20696e76616c6964206d65726b6c6520726f6f7400006044820152606401610480565b6000821161073c5760405162461bcd60e51b8152602060048201526016602482015275088dec6accae4d2ccf27440cadae0e8f240c4c2e8c6d60531b6044820152606401610480565b600081815260036020819052604090912001541561079c5760405162461bcd60e51b815260206004820152601760248201527f446f635665726966793a206261746368206578697374730000000000000000006044820152606401610480565b60408051608081018252848152602080820185815233838501908152426060850190815260008781526003948590529586209451855591516001850155516002840180546001600160a01b0319166001600160a01b0390921691909117905551910155600680549161080d83611871565b91905055508160056000828254610824919061188a565b909155505060408051848152602081018490524291810191909152339082907fe343acbe1873782ef6f59ff5cf1d746936806f42c7982a3e9ec2243b1e8a2c5c906060015b60405180910390a3505050565b6000546001600160a01b031633146108a05760405162461bcd60e51b8152600401610480906117a7565b6001600160a01b0381166108f65760405162461bcd60e51b815260206004820152601a60248201527f446f635665726966793a20696e76616c696420616464726573730000000000006044820152606401610480565b6001600160a01b03811660009081526004602052604090205460ff161561095f5760405162461bcd60e51b815260206004820152601d60248201527f446f635665726966793a20616c726561647920617574686f72697a65640000006044820152606401610480565b6001600160a01b038116600081815260046020526040808220805460ff19166001179055513392917ff4cd6b9ab16a30e83c28fe7158ea1b91584403cb530c35fe073d780143b6732c91a350565b6000546001600160a01b03163314806109d557503360009081526004602052604090205460ff165b6109f15760405162461bcd60e51b815260040161048090611818565b6000818152600160205260408120600201549003610a515760405162461bcd60e51b815260206004820152601d60248201527f446f635665726966793a20646f63756d656e74206e6f7420666f756e640000006044820152606401610480565b60008181526001602052604090206003015460ff1615610ab35760405162461bcd60e51b815260206004820152601a60248201527f446f635665726966793a20616c7265616479207265766f6b65640000000000006044820152606401610480565b600081815260016020819052604090912001546001600160a01b0316331480610ae657506000546001600160a01b031633145b610b3e5760405162461bcd60e51b815260206004820152602360248201527f446f635665726966793a206e6f7420617574686f72697a656420746f207265766044820152626f6b6560e81b6064820152608401610480565b600081815260016020818152604092839020600301805460ff19169092179091559051428152339183917f58dab06ff4a881de7cd15a590640a447aec068b61e18a8b9b4ae28a8984fe3d6910160405180910390a350565b600080600080600060028787604051610bb092919061189d565b908152604080519182900360209081018320546000818152600180845284822060a08701865280548752908101546001600160a01b031693860193909352600283015493850193909352600382015460ff16151560608501526004820180549198509293926080840191610c23906117de565b80601f0160208091040260200160405190810160405280929190818152602001828054610c4f906117de565b8015610c9c5780601f10610c7157610100808354040283529160200191610c9c565b820191906000526020600020905b815481529060010190602001808311610c7f57829003601f168201915b50505050508152505090508060400151600014158015610cbe57508060600151155b60208201516040830151606090930151919a96995097509095509392505050565b6000818152600160208181526040808420815160a08101835281548152938101546001600160a01b031692840192909252600282015490830152600381015460ff161515606083810191909152600482018054859485948593919290916080840191610d4a906117de565b80601f0160208091040260200160405190810160405280929190818152602001828054610d76906117de565b8015610dc35780601f10610d9857610100808354040283529160200191610dc3565b820191906000526020600020905b815481529060010190602001808311610da657829003601f168201915b505050505081525050905080602001518160400151826060015183608001519450945094509450509193509193565b600084815260036020818152604080842081516080810183528154815260018201549381019390935260028101546001600160a01b03169183019190915290910154606082018190528203610e895760405162461bcd60e51b815260206004820152601a60248201527f446f635665726966793a206261746368206e6f7420666f756e640000000000006044820152606401610480565b8460005b84811015610f20576000868683818110610ea957610ea96118ad565b905060200201359050808311610eea576040805160208101859052908101829052606001604051602081830303815290604052805190602001209250610f17565b60408051602081018390529081018490526060016040516020818303038152906040528051906020012092505b50600101610e8d565b5090511495945050505050565b6000546001600160a01b03163314610f575760405162461bcd60e51b8152600401610480906117a7565b6001600160a01b038116610fad5760405162461bcd60e51b815260206004820152601a60248201527f446f635665726966793a20696e76616c696420616464726573730000000000006044820152606401610480565b600080546001600160a01b038381166001600160a01b031983168117845580845260046020526040808520805460ff1916600117905551919092169283917f8be0079c531659141344cd1fd0a4f28419497f9722a3daafe3b4186f6b6457e09190a35050565b6000546001600160a01b031633148061103b57503360009081526004602052604090205460ff165b6110575760405162461bcd60e51b815260040161048090611818565b826110a45760405162461bcd60e51b815260206004820152601760248201527f446f635665726966793a20696e76616c696420686173680000000000000000006044820152606401610480565b600083815260016020526040902060020154156111035760405162461bcd60e51b815260206004820152601a60248201527f446f635665726966793a20646f63756d656e74206578697374730000000000006044820152606401610480565b806111505760405162461bcd60e51b815260206004820152601e60248201527f446f635665726966793a20696e76616c696420646f63756d656e7420494400006044820152606401610480565b6040518060a00160405280848152602001336001600160a01b0316815260200142815260200160001515815260200183838080601f016020809104026020016040519081016040528093929190818152602001838380828437600092018290525093909452505085815260016020818152604092839020855181559085015191810180546001600160a01b0319166001600160a01b0390931692909217909155908301516002820155606083015160038201805460ff1916911515919091179055608083015190915060048201906112289082611914565b50905050826002838360405161123f92919061189d565b908152604051908190036020019020556005805490600061125f83611871565b9190505550336001600160a01b0316837f4c9313acc7e3e657666e9ed0b3a9cad371a8b196293ff8df92e278eb16b5ab56848442604051610869939291906119d4565b6000818152600160208181526040808420815160a08101835281548152938101546001600160a01b031692840192909252600282015490830152600381015460ff16151560608301526004810180548493849384938493608084019190611308906117de565b80601f0160208091040260200160405190810160405280929190818152602001828054611334906117de565b80156113815780601f1061135657610100808354040283529160200191611381565b820191906000526020600020905b81548152906001019060200180831161136457829003601f168201915b505050505081525050905080604001516000141580156113a357508060600151155b60208201516040830151606084015160078054949950929750909550935060006113cc83611871565b9091555050604080518615158152426020820152339188917f9e1f9053e2a9fd44d20b9a1a32ce11635d33522b00bf00d0dc6371af05361000910160405180910390a3509193509193565b600080546001600160a01b038381169116148061144c57506001600160a01b03821660009081526004602052604090205460ff165b92915050565b60006020828403121561146457600080fd5b81356001600160a01b038116811461147b57600080fd5b9392505050565b60006020828403121561149457600080fd5b5035919050565b6000815180845260005b818110156114c1576020818501810151868301820152016114a5565b506000602082860101526020601f19601f83011685010191505092915050565b85815260018060a01b0385166020820152836040820152821515606082015260a06080820152600061151660a083018461149b565b979650505050505050565b60008060006060848603121561153657600080fd5b505081359360208301359350604090920135919050565b634e487b7160e01b600052604160045260246000fd5b60006020828403121561157557600080fd5b813567ffffffffffffffff8082111561158d57600080fd5b818401915084601f8301126115a157600080fd5b8135818111156115b3576115b361154d565b604051601f8201601f19908116603f011681019083821181831017156115db576115db61154d565b816040528281528760208487010111156115f457600080fd5b826020860160208301376000928101602001929092525095945050505050565b60008083601f84011261162657600080fd5b50813567ffffffffffffffff81111561163e57600080fd5b60208301915083602082850101111561165657600080fd5b9250929050565b6000806020838503121561167057600080fd5b823567ffffffffffffffff81111561168757600080fd5b61169385828601611614565b90969095509350505050565b60018060a01b038516815283602082015282151560408201526080606082015260006116ce608083018461149b565b9695505050505050565b600080600080606085870312156116ee57600080fd5b8435935060208501359250604085013567ffffffffffffffff8082111561171457600080fd5b818701915087601f83011261172857600080fd5b81358181111561173757600080fd5b8860208260051b850101111561174c57600080fd5b95989497505060200194505050565b60008060006040848603121561177057600080fd5b83359250602084013567ffffffffffffffff81111561178e57600080fd5b61179a86828701611614565b9497909650939450505050565b6020808252601e908201527f446f635665726966793a2063616c6c6572206973206e6f74206f776e65720000604082015260600190565b600181811c908216806117f257607f821691505b60208210810361181257634e487b7160e01b600052602260045260246000fd5b50919050565b60208082526023908201527f446f635665726966793a2063616c6c6572206973206e6f7420617574686f72696040820152621e995960ea1b606082015260800190565b634e487b7160e01b600052601160045260246000fd5b6000600182016118835761188361185b565b5060010190565b8082018082111561144c5761144c61185b565b8183823760009101908152919050565b634e487b7160e01b600052603260045260246000fd5b601f82111561190f576000816000526020600020601f850160051c810160208610156118ec5750805b601f850160051c820191505b8181101561190b578281556001016118f8565b5050505b505050565b815167ffffffffffffffff81111561192e5761192e61154d565b6119428161193c84546117de565b846118c3565b602080601f831160018114611977576000841561195f5750858301515b600019600386901b1c1916600185901b17855561190b565b600085815260208120601f198616915b828110156119a657888601518255948401946001909101908401611987565b50858210156119c45787850151600019600388901b60f8161c191681555b5050505050600190811b01905550565b604081528260408201528284606083013760006060848301015260006060601f19601f860116830101905082602083015294935050505056fea2646970667358221220e3c4f79224bf8b37071da12a51c0bb907ce2e767ca3a5838453d8d19e2329d4064736f6c63430008180033",
  "linkReferences": {},
  "deployedLinkReferences": {}
}